:020000040000FA
:10000000000002285530AE000230AF008030000002
:100010000000D0210000000083120000C2002F0861
:10002000C1005730C3000230C400831200004108F1
:10003000C5004208C600FF30C107031CC2034608C2
:10004000450403199A2804304307C500C601C60DAC
:100050004408C6074508AE004608AF0080300000DF
:100060000000D0210000000083120000C8002F080B
:10007000C7004308AE004408AF0080300000000015
:10008000D0210000000083120000CA00C6002F0823
:10009000C500C90002304307C500C601C60D4408AB
:1000A000C6074508AE004608AF00803000000000DB
:1000B000D0210000000083120000C600CC002F08F1
:1000C000CB00C500831200004708CB004808CC00D5
:1000D000FF30C707031CC8034C084B0403199328BF
:1000E0004908AE004A08AF00803000000000F1214E
:1000F0000000000083120000CB00450883120313A8
:100100008400831383120000461883174B08831260
:100110000313800083120000C90A0319CA0AC50A22
:100120000319C60A6228063083120000C3070318A9
:10013000C40A1528000000009E28080083168501C7
:10014000831285015D22B1002F08B000AB00310899
:10015000AC000630AD000030AE000130AF00003022
:100160000422B1002F08B0008312851D1129310827
:10017000803E803E031DBE2801303002031C112941
:100180003108803E803E031DC72807303002031827
:1001900011293003B20000308A00D2303207031830
:1001A0008A0A8200D828E128EA28F428FE280829AB
:1001B00083120514F430AF0001302E228312051093
:1001C000112983128514F430AF0001302E228312DE
:1001D00085101129033083128500F430AF000130FF
:1001E0002E22831285011129063083128500F430F6
:1001F000AF0001302E2283128501112907308312AE
:100200008500F430AF0001302E22831285011129C0
:10021000173083128500F430AF0001302E22831294
:1002200085013008AB003108AC000630AD0000306D
:10023000AE000130AF0000300422B1002F08B00042
:10024000B428080083120000CE002F08CD002E082D
:10025000D0002D08CF000314CE1F0310D101D10D03
:10026000510803193B294D09D2004E09D300D20A87
:100270000319D30A4129831200004D08D2004E0809
:10028000D300831200005208CD005308CE0003149F
:10029000D01F0310031C54294F09D2005009D3006A
:1002A000D20A0319D30A5A29831200004F08D20038
:1002B0005008D300831200005208CF00AD0053084D
:1002C000D000AE004D08AF004E08000000008321B2
:1002D0000000000083120000CE002F08CD0051085E
:1002E00003197D294D09D1004E09CF00D10A031908
:1002F000CF0A5108AF004F088229831200004D0831
:10030000AF004E08080083120000D5002F08D4006B
:100310002E08D7002D08D600D801D901831200007D
:1003200057088039031D0130DA005A08031DAF2930
:100330000310D60DD70D57085502031DA1295608E5
:1003400054020318A929031083120000D70CD60CFD
:10035000AF2983120000D90A5908D8008E298312C8
:10036000000057085502031DB72956085402031C04
:10037000C129831200005608D4025708031C570FE6
:10038000D502031083120000D70CD60C5808D900F0
:10039000D8035908031DAF295408AF0055080800B9
:1003A000003A0319D829803A0319E229AF01003431
:1003B0002E08840083132F1883170008AF00840AC7
:1003C0000008080000000000FF21AD00AE0FAF03E1
:1003D000AF0A00000000FF21AC002D08AF002C0880
:1003E0000800003A0319F829803A0319FF2900345C
:1003F0002E08840083132F188317000808002F0885
:100400008A002E0882000800BC002F08BB002E08BE
:10041000BE002D08BD002C08C0002B08BF00BD0A7F
:100420000319BE0A3B08BD023C08031C3C0FBE0278
:100430003D08AD003E08AE003F08AF004008222155
:10044000BE002F08BD003B083D07BB003E08031857
:100450003E0FBC073B08AF003C080800B4002F0863
:10046000B300B501B60134083602031D392A33083A
:1004700035020318542AFB30B7000430B800FF30AF
:100480003707B900FF30BA0038080318380FBA0729
:100490003908B7003A08B8003A083904031D3F2A62
:1004A000B50A0319B60A332A08000134003461344E
:1004B00002345B34003401340034FF30AF00FE30CE
:0404C00008000034FC
:00000001FF
